{
  "_format": "hh-sol-artifact-1",
  "contractName": "CLASSDAO",
  "sourceName": "contracts/CLASSDAO.sol",
  "abi": [
    {
      "inputs": [],
      "stateMutability": "nonpayable",
      "type": "constructor"
    },
    {
      "inputs": [],
      "name": "ECDSAInvalidSignature",
      "type": "error"
    },
    {
      "inputs": [
        {
          "internalType": "uint256",
          "name": "length",
          "type": "uint256"
        }
      ],
      "name": "ECDSAInvalidSignatureLength",
      "type": "error"
    },
    {
      "inputs": [
        {
          "internalType": "bytes32",
          "name": "s",
          "type": "bytes32"
        }
      ],
      "name": "ECDSAInvalidSignatureS",
      "type": "error"
    },
    {
      "inputs": [
        {
          "internalType": "address",
          "name": "spender",
          "type": "address"
        },
        {
          "internalType": "uint256",
          "name": "allowance",
          "type": "uint256"
        },
        {
          "internalType": "uint256",
          "name": "needed",
          "type": "uint256"
        }
      ],
      "name": "ERC20InsufficientAllowance",
      "type": "error"
    },
    {
      "inputs": [
        {
          "internalType": "address",
          "name": "sender",
          "type": "address"
        },
        {
          "internalType": "uint256",
          "name": "balance",
          "type": "uint256"
        },
        {
          "internalType": "uint256",
          "name": "needed",
          "type": "uint256"
        }
      ],
      "name": "ERC20InsufficientBalance",
      "type": "error"
    },
    {
      "inputs": [
        {
          "internalType": "address",
          "name": "approver",
          "type": "address"
        }
      ],
      "name": "ERC20InvalidApprover",
      "type": "error"
    },
    {
      "inputs": [
        {
          "internalType": "address",
          "name": "receiver",
          "type": "address"
        }
      ],
      "name": "ERC20InvalidReceiver",
      "type": "error"
    },
    {
      "inputs": [
        {
          "internalType": "address",
          "name": "sender",
          "type": "address"
        }
      ],
      "name": "ERC20InvalidSender",
      "type": "error"
    },
    {
      "inputs": [
        {
          "internalType": "address",
          "name": "spender",
          "type": "address"
        }
      ],
      "name": "ERC20InvalidSpender",
      "type": "error"
    },
    {
      "inputs": [
        {
          "internalType": "uint256",
          "name": "deadline",
          "type": "uint256"
        }
      ],
      "name": "ERC2612ExpiredSignature",
      "type": "error"
    },
    {
      "inputs": [
        {
          "internalType": "address",
          "name": "signer",
          "type": "address"
        },
        {
          "internalType": "address",
          "name": "owner",
          "type": "address"
        }
      ],
      "name": "ERC2612InvalidSigner",
      "type": "error"
    },
    {
      "inputs": [
        {
          "internalType": "address",
          "name": "account",
          "type": "address"
        },
        {
          "internalType": "uint256",
          "name": "currentNonce",
          "type": "uint256"
        }
      ],
      "name": "InvalidAccountNonce",
      "type": "error"
    },
    {
      "inputs": [],
      "name": "InvalidShortString",
      "type": "error"
    },
    {
      "inputs": [
        {
          "internalType": "string",
          "name": "str",
          "type": "string"
        }
      ],
      "name": "StringTooLong",
      "type": "error"
    },
    {
      "anonymous": false,
      "inputs": [
        {
          "indexed": false,
          "internalType": "address",
          "name": "student",
          "type": "address"
        },
        {
          "indexed": false,
          "internalType": "uint256",
          "name": "amount",
          "type": "uint256"
        }
      ],
      "name": "AWARDED_TOKENS",
      "type": "event"
    },
    {
      "anonymous": false,
      "inputs": [
        {
          "indexed": true,
          "internalType": "address",
          "name": "owner",
          "type": "address"
        },
        {
          "indexed": true,
          "internalType": "address",
          "name": "spender",
          "type": "address"
        },
        {
          "indexed": false,
          "internalType": "uint256",
          "name": "value",
          "type": "uint256"
        }
      ],
      "name": "Approval",
      "type": "event"
    },
    {
      "anonymous": false,
      "inputs": [],
      "name": "EIP712DomainChanged",
      "type": "event"
    },
    {
      "anonymous": false,
      "inputs": [
        {
          "indexed": false,
          "internalType": "string",
          "name": "feedback",
          "type": "string"
        }
      ],
      "name": "EVALUATION_SUBMITTED",
      "type": "event"
    },
    {
      "anonymous": false,
      "inputs": [
        {
          "indexed": true,
          "internalType": "uint256",
          "name": "index",
          "type": "uint256"
        },
        {
          "indexed": false,
          "internalType": "address",
          "name": "author",
          "type": "address"
        },
        {
          "indexed": false,
          "internalType": "string",
          "name": "title",
          "type": "string"
        },
        {
          "indexed": false,
          "internalType": "string",
          "name": "description",
          "type": "string"
        }
      ],
      "name": "PROPOSAL_SUBMITTED",
      "type": "event"
    },
    {
      "anonymous": false,
      "inputs": [
        {
          "indexed": true,
          "internalType": "uint256",
          "name": "index",
          "type": "uint256"
        },
        {
          "indexed": false,
          "internalType": "uint256",
          "name": "numVotes",
          "type": "uint256"
        },
        {
          "indexed": false,
          "internalType": "bool",
          "name": "support",
          "type": "bool"
        }
      ],
      "name": "PROPOSAL_VOTED",
      "type": "event"
    },
    {
      "anonymous": false,
      "inputs": [
        {
          "indexed": false,
          "internalType": "address",
          "name": "student",
          "type": "address"
        },
        {
          "indexed": false,
          "internalType": "bool",
          "name": "result",
          "type": "bool"
        }
      ],
      "name": "STUDENT_VERIFIED",
      "type": "event"
    },
    {
      "anonymous": false,
      "inputs": [
        {
          "indexed": true,
          "internalType": "address",
          "name": "from",
          "type": "address"
        },
        {
          "indexed": true,
          "internalType": "address",
          "name": "to",
          "type": "address"
        },
        {
          "indexed": false,
          "internalType": "uint256",
          "name": "value",
          "type": "uint256"
        }
      ],
      "name": "Transfer",
      "type": "event"
    },
    {
      "inputs": [],
      "name": "DOMAIN_SEPARATOR",
      "outputs": [
        {
          "internalType": "bytes32",
          "name": "",
          "type": "bytes32"
        }
      ],
      "stateMutability": "view",
      "type": "function"
    },
    {
      "inputs": [],
      "name": "PROPOSAL_COST",
      "outputs": [
        {
          "internalType": "uint8",
          "name": "",
          "type": "uint8"
        }
      ],
      "stateMutability": "view",
      "type": "function"
    },
    {
      "inputs": [
        {
          "internalType": "address",
          "name": "owner",
          "type": "address"
        },
        {
          "internalType": "address",
          "name": "spender",
          "type": "address"
        }
      ],
      "name": "allowance",
      "outputs": [
        {
          "internalType": "uint256",
          "name": "",
          "type": "uint256"
        }
      ],
      "stateMutability": "view",
      "type": "function"
    },
    {
      "inputs": [
        {
          "internalType": "address",
          "name": "spender",
          "type": "address"
        },
        {
          "internalType": "uint256",
          "name": "value",
          "type": "uint256"
        }
      ],
      "name": "approve",
      "outputs": [
        {
          "internalType": "bool",
          "name": "",
          "type": "bool"
        }
      ],
      "stateMutability": "nonpayable",
      "type": "function"
    },
    {
      "inputs": [
        {
          "internalType": "address",
          "name": "student",
          "type": "address"
        },
        {
          "internalType": "uint256",
          "name": "amount",
          "type": "uint256"
        }
      ],
      "name": "awardTokens",
      "outputs": [],
      "stateMutability": "nonpayable",
      "type": "function"
    },
    {
      "inputs": [
        {
          "internalType": "address",
          "name": "account",
          "type": "address"
        }
      ],
      "name": "balanceOf",
      "outputs": [
        {
          "internalType": "uint256",
          "name": "",
          "type": "uint256"
        }
      ],
      "stateMutability": "view",
      "type": "function"
    },
    {
      "inputs": [],
      "name": "decimals",
      "outputs": [
        {
          "internalType": "uint8",
          "name": "",
          "type": "uint8"
        }
      ],
      "stateMutability": "view",
      "type": "function"
    },
    {
      "inputs": [],
      "name": "eip712Domain",
      "outputs": [
        {
          "internalType": "bytes1",
          "name": "fields",
          "type": "bytes1"
        },
        {
          "internalType": "string",
          "name": "name",
          "type": "string"
        },
        {
          "internalType": "string",
          "name": "version",
          "type": "string"
        },
        {
          "internalType": "uint256",
          "name": "chainId",
          "type": "uint256"
        },
        {
          "internalType": "address",
          "name": "verifyingContract",
          "type": "address"
        },
        {
          "internalType": "bytes32",
          "name": "salt",
          "type": "bytes32"
        },
        {
          "internalType": "uint256[]",
          "name": "extensions",
          "type": "uint256[]"
        }
      ],
      "stateMutability": "view",
      "type": "function"
    },
    {
      "inputs": [
        {
          "internalType": "uint256",
          "name": "",
          "type": "uint256"
        }
      ],
      "name": "evaluations",
      "outputs": [
        {
          "internalType": "string",
          "name": "",
          "type": "string"
        }
      ],
      "stateMutability": "view",
      "type": "function"
    },
    {
      "inputs": [],
      "name": "name",
      "outputs": [
        {
          "internalType": "string",
          "name": "",
          "type": "string"
        }
      ],
      "stateMutability": "view",
      "type": "function"
    },
    {
      "inputs": [
        {
          "internalType": "address",
          "name": "owner",
          "type": "address"
        }
      ],
      "name": "nonces",
      "outputs": [
        {
          "internalType": "uint256",
          "name": "",
          "type": "uint256"
        }
      ],
      "stateMutability": "view",
      "type": "function"
    },
    {
      "inputs": [
        {
          "internalType": "address",
          "name": "owner",
          "type": "address"
        },
        {
          "internalType": "address",
          "name": "spender",
          "type": "address"
        },
        {
          "internalType": "uint256",
          "name": "value",
          "type": "uint256"
        },
        {
          "internalType": "uint256",
          "name": "deadline",
          "type": "uint256"
        },
        {
          "internalType": "uint8",
          "name": "v",
          "type": "uint8"
        },
        {
          "internalType": "bytes32",
          "name": "r",
          "type": "bytes32"
        },
        {
          "internalType": "bytes32",
          "name": "s",
          "type": "bytes32"
        }
      ],
      "name": "permit",
      "outputs": [],
      "stateMutability": "nonpayable",
      "type": "function"
    },
    {
      "inputs": [],
      "name": "professor",
      "outputs": [
        {
          "internalType": "address",
          "name": "",
          "type": "address"
        }
      ],
      "stateMutability": "view",
      "type": "function"
    },
    {
      "inputs": [
        {
          "internalType": "uint256",
          "name": "",
          "type": "uint256"
        }
      ],
      "name": "proposals",
      "outputs": [
        {
          "internalType": "string",
          "name": "title",
          "type": "string"
        },
        {
          "internalType": "string",
          "name": "description",
          "type": "string"
        },
        {
          "internalType": "uint256",
          "name": "votesFor",
          "type": "uint256"
        },
        {
          "internalType": "uint256",
          "name": "votesAgainst",
          "type": "uint256"
        }
      ],
      "stateMutability": "view",
      "type": "function"
    },
    {
      "inputs": [
        {
          "internalType": "string",
          "name": "feedback",
          "type": "string"
        }
      ],
      "name": "submitCourseEvaluation",
      "outputs": [],
      "stateMutability": "nonpayable",
      "type": "function"
    },
    {
      "inputs": [
        {
          "internalType": "string",
          "name": "title",
          "type": "string"
        },
        {
          "internalType": "string",
          "name": "description",
          "type": "string"
        }
      ],
      "name": "submitProposal",
      "outputs": [],
      "stateMutability": "nonpayable",
      "type": "function"
    },
    {
      "inputs": [],
      "name": "symbol",
      "outputs": [
        {
          "internalType": "string",
          "name": "",
          "type": "string"
        }
      ],
      "stateMutability": "view",
      "type": "function"
    },
    {
      "inputs": [],
      "name": "totalCourseEvaluations",
      "outputs": [
        {
          "internalType": "uint256",
          "name": "",
          "type": "uint256"
        }
      ],
      "stateMutability": "view",
      "type": "function"
    },
    {
      "inputs": [],
      "name": "totalProposals",
      "outputs": [
        {
          "internalType": "uint256",
          "name": "",
          "type": "uint256"
        }
      ],
      "stateMutability": "view",
      "type": "function"
    },
    {
      "inputs": [],
      "name": "totalSupply",
      "outputs": [
        {
          "internalType": "uint256",
          "name": "",
          "type": "uint256"
        }
      ],
      "stateMutability": "view",
      "type": "function"
    },
    {
      "inputs": [
        {
          "internalType": "address",
          "name": "to",
          "type": "address"
        },
        {
          "internalType": "uint256",
          "name": "value",
          "type": "uint256"
        }
      ],
      "name": "transfer",
      "outputs": [
        {
          "internalType": "bool",
          "name": "",
          "type": "bool"
        }
      ],
      "stateMutability": "nonpayable",
      "type": "function"
    },
    {
      "inputs": [
        {
          "internalType": "address",
          "name": "from",
          "type": "address"
        },
        {
          "internalType": "address",
          "name": "to",
          "type": "address"
        },
        {
          "internalType": "uint256",
          "name": "value",
          "type": "uint256"
        }
      ],
      "name": "transferFrom",
      "outputs": [
        {
          "internalType": "bool",
          "name": "",
          "type": "bool"
        }
      ],
      "stateMutability": "nonpayable",
      "type": "function"
    },
    {
      "inputs": [
        {
          "internalType": "address",
          "name": "",
          "type": "address"
        }
      ],
      "name": "verifiedStudents",
      "outputs": [
        {
          "internalType": "bool",
          "name": "",
          "type": "bool"
        }
      ],
      "stateMutability": "view",
      "type": "function"
    },
    {
      "inputs": [],
      "name": "verifier",
      "outputs": [
        {
          "internalType": "contract Groth16Verifier",
          "name": "",
          "type": "address"
        }
      ],
      "stateMutability": "view",
      "type": "function"
    },
    {
      "inputs": [
        {
          "internalType": "uint256[2]",
          "name": "_pA",
          "type": "uint256[2]"
        },
        {
          "internalType": "uint256[2][2]",
          "name": "_pB",
          "type": "uint256[2][2]"
        },
        {
          "internalType": "uint256[2]",
          "name": "_pC",
          "type": "uint256[2]"
        },
        {
          "internalType": "uint256[1]",
          "name": "_pubSignals",
          "type": "uint256[1]"
        }
      ],
      "name": "verifyStudent",
      "outputs": [
        {
          "internalType": "bool",
          "name": "",
          "type": "bool"
        }
      ],
      "stateMutability": "nonpayable",
      "type": "function"
    },
    {
      "inputs": [
        {
          "internalType": "uint256",
          "name": "proposalIndex",
          "type": "uint256"
        },
        {
          "internalType": "uint256",
          "name": "numVotes",
          "type": "uint256"
        },
        {
          "internalType": "bool",
          "name": "support",
          "type": "bool"
        }
      ],
      "name": "voteProposal",
      "outputs": [],
      "stateMutability": "nonpayable",
      "type": "function"
    }
  ],
  "bytecode": "0x6101a0604052600a60ff166101809060ff168152503480156200002157600080fd5b506040518060400160405280600881526020017f434c4153534b454e000000000000000000000000000000000000000000000000815250806040518060400160405280600181526020017f31000000000000000000000000000000000000000000000000000000000000008152506040518060400160405280600881526020017f434c4153534b454e0000000000000000000000000000000000000000000000008152506040518060400160405280600381526020017f434c4b000000000000000000000000000000000000000000000000000000000081525081600390816200010c91906200062d565b5080600490816200011e91906200062d565b505050620001376005836200027960201b90919060201c565b6101208181525050620001556006826200027960201b90919060201c565b6101408181525050818051906020012060e08181525050808051906020012061010081815250504660a0818152505062000194620002d160201b60201c565b608081815250503073ffffffffffffffffffffffffffffffffffffffff1660c08173ffffffffffffffffffffffffffffffffffffffff16815250505050503373ffffffffffffffffffffffffffffffffffffffff166101608173ffffffffffffffffffffffffffffffffffffffff16815250506040516200021590620003a5565b604051809103906000f08015801562000232573d6000803e3d6000fd5b50600a60006101000a81548173ffffffffffffffffffffffffffffffffffffffff021916908373ffffffffffffffffffffffffffffffffffffffff16021790555062000937565b60006020835110156200029f5762000297836200032e60201b60201c565b9050620002cb565b82620002b1836200039b60201b60201c565b6000019081620002c291906200062d565b5060ff60001b90505b92915050565b60007f8b73c3c69bb8fe3d512ecc4cf759cc79239f7b179b0ffacaa9a75d522b39400f60e0516101005146306040516020016200031395949392919062000785565b60405160208183030381529060405280519060200120905090565b600080829050601f815111156200037e57826040517f305a27a900000000000000000000000000000000000000000000000000000000815260040162000375919062000871565b60405180910390fd5b8051816200038c90620008c7565b60001c1760001b915050919050565b6000819050919050565b61062e806200420683390190565b600081519050919050565b7f4e487b7100000000000000000000000000000000000000000000000000000000600052604160045260246000fd5b7f4e487b7100000000000000000000000000000000000000000000000000000000600052602260045260246000fd5b600060028204905060018216806200043557607f821691505b6020821081036200044b576200044a620003ed565b5b50919050565b60008190508160005260206000209050919050565b60006020601f8301049050919050565b600082821b905092915050565b600060088302620004b57fffffffffffffffffffffffffffffffffffffffffffffffffffffffffffffffff8262000476565b620004c1868362000476565b95508019841693508086168417925050509392505050565b6000819050919050565b6000819050919050565b60006200050e620005086200050284620004d9565b620004e3565b620004d9565b9050919050565b6000819050919050565b6200052a83620004ed565b62000542620005398262000515565b84845462000483565b825550505050565b600090565b620005596200054a565b620005668184846200051f565b505050565b5b818110156200058e57620005826000826200054f565b6001810190506200056c565b5050565b601f821115620005dd57620005a78162000451565b620005b28462000466565b81016020851015620005c2578190505b620005da620005d18562000466565b8301826200056b565b50505b505050565b600082821c905092915050565b60006200060260001984600802620005e2565b1980831691505092915050565b60006200061d8383620005ef565b9150826002028217905092915050565b6200063882620003b3565b67ffffffffffffffff811115620006545762000653620003be565b5b6200066082546200041c565b6200066d82828562000592565b600060209050601f831160018114620006a5576000841562000690578287015190505b6200069c85826200060f565b8655506200070c565b601f198416620006b58662000451565b60005b82811015620006df57848901518255600182019150602085019450602081019050620006b8565b86831015620006ff5784890151620006fb601f891682620005ef565b8355505b6001600288020188555050505b505050505050565b6000819050919050565b620007298162000714565b82525050565b6200073a81620004d9565b82525050565b600073ffffffffffffffffffffffffffffffffffffffff82169050919050565b60006200076d8262000740565b9050919050565b6200077f8162000760565b82525050565b600060a0820190506200079c60008301886200071e565b620007ab60208301876200071e565b620007ba60408301866200071e565b620007c960608301856200072f565b620007d8608083018462000774565b9695505050505050565b600082825260208201905092915050565b60005b8381101562000813578082015181840152602081019050620007f6565b60008484015250505050565b6000601f19601f8301169050919050565b60006200083d82620003b3565b620008498185620007e2565b93506200085b818560208601620007f3565b62000866816200081f565b840191505092915050565b600060208201905081810360008301526200088d818462000830565b905092915050565b600081519050919050565b6000819050602082019050919050565b6000620008be825162000714565b80915050919050565b6000620008d48262000895565b82620008e084620008a0565b9050620008ed81620008b0565b9250602082101562000930576200092b7fffffffffffffffffffffffffffffffffffffffffffffffffffffffffffffffff8360200360080262000476565b831692505b5050919050565b60805160a05160c05160e0516101005161012051610140516101605161018051613834620009d26000396000818161106c01526112ef01526000818161075b01528181610a4201528181610c0101528181610c2501528181611090015261125d015260006119960152600061195b01526000611eab01526000611e8a015260006117d40152600061182a0152600061185301526138346000f3fe608060405234801561001057600080fd5b506004361061018e5760003560e01c806370a08231116100de578063b362dbf611610097578063c0f04ca911610071578063c0f04ca9146104b8578063d505accf146104e8578063dd62ed3e14610504578063ed7e71ba146105345761018e565b8063b362dbf614610462578063b39a043c14610480578063be0dc4b71461049c5761018e565b806370a08231146103725780637ecebe00146103a257806384b0196e146103d257806395d89b41146103f6578063a78d80fc14610414578063a9059cbb146104325761018e565b80632b5819901161014b57806333c63b171161012557806333c63b17146102ea5780633644e5151461031a5780635113940d146103385780636cb5e330146103565761018e565b80632b581990146102925780632b7ac3f3146102ae578063313ce567146102cc5761018e565b8063013cf08b1461019357806306fdde03146101c6578063095ea7b3146101e457806313e3bb7c1461021457806318160ddd1461024457806323b872dd14610262575b600080fd5b6101ad60048036038101906101a89190612352565b610552565b6040516101bd949392919061241e565b60405180910390f35b6101ce6106a2565b6040516101db9190612471565b60405180910390f35b6101fe60048036038101906101f991906124f1565b610734565b60405161020b919061254c565b60405180910390f35b61022e600480360381019061022991906125d2565b610757565b60405161023b919061254c565b60405180910390f35b61024c610a07565b604051610259919061263b565b60405180910390f35b61027c60048036038101906102779190612656565b610a11565b604051610289919061254c565b60405180910390f35b6102ac60048036038101906102a791906124f1565b610a40565b005b6102b6610b15565b6040516102c39190612708565b60405180910390f35b6102d4610b3b565b6040516102e1919061273f565b60405180910390f35b61030460048036038101906102ff9190612352565b610b44565b6040516103119190612471565b60405180910390f35b610322610bf0565b60405161032f9190612773565b60405180910390f35b610340610bff565b60405161034d919061279d565b60405180910390f35b610370600480360381019061036b91906127e4565b610c23565b005b61038c60048036038101906103879190612837565b610ea4565b604051610399919061263b565b60405180910390f35b6103bc60048036038101906103b79190612837565b610eec565b6040516103c9919061263b565b60405180910390f35b6103da610efe565b6040516103ed979695949392919061295d565b60405180910390f35b6103fe610fa8565b60405161040b9190612471565b60405180910390f35b61041c61103a565b604051610429919061263b565b60405180910390f35b61044c600480360381019061044791906124f1565b611047565b604051610459919061254c565b60405180910390f35b61046a61106a565b604051610477919061273f565b60405180910390f35b61049a60048036038101906104959190612b16565b61108e565b005b6104b660048036038101906104b19190612b5f565b61125b565b005b6104d260048036038101906104cd9190612837565b6113b0565b6040516104df919061254c565b60405180910390f35b61050260048036038101906104fd9190612c2f565b6113d0565b005b61051e60048036038101906105199190612cd1565b611518565b60405161052b919061263b565b60405180910390f35b61053c61159f565b604051610549919061263b565b60405180910390f35b6008818154811061056257600080fd5b906000526020600020906005020160009150905080600001805461058590612d40565b80601f01602080910402602001604051908101604052809291908181526020018280546105b190612d40565b80156105fe5780601f106105d3576101008083540402835291602001916105fe565b820191906000526020600020905b8154815290600101906020018083116105e157829003601f168201915b50505050509080600101805461061390612d40565b80601f016020809104026020016040519081016040528092919081815260200182805461063f90612d40565b801561068c5780601f106106615761010080835404028352916020019161068c565b820191906000526020600020905b81548152906001019060200180831161066f57829003601f168201915b5050505050908060020154908060030154905084565b6060600380546106b190612d40565b80601f01602080910402602001604051908101604052809291908181526020018280546106dd90612d40565b801561072a5780601f106106ff5761010080835404028352916020019161072a565b820191906000526020600020905b81548152906001019060200180831161070d57829003601f168201915b5050505050905090565b60008061073f6115ac565b905061074c8185856115b4565b600191505092915050565b60007f000000000000000000000000000000000000000000000000000000000000000073ffffffffffffffffffffffffffffffffffffffff163373ffffffffffffffffffffffffffffffffffffffff16036107e7576040517f08c379a00000000000000000000000000000000000000000000000000000000081526004016107de90612dbd565b60405180910390fd5b600960003373ffffffffffffffffffffffffffffffffffffffff1673ffffffffffffffffffffffffffffffffffffffff16815260200190815260200160002060009054906101000a900460ff166109b0576000600a60009054906101000a900473ffffffffffffffffffffffffffffffffffffffff1673ffffffffffffffffffffffffffffffffffffffff166343753b4d878787876040518563ffffffff1660e01b815260040161089b9493929190612ec5565b602060405180830381865afa1580156108b8573d6000803e3d6000fd5b505050506040513d601f19601f820116820180604052508101906108dc9190612f21565b90508061091e576040517f08c379a000000000000000000000000000000000000000000000000000000000815260040161091590612f9a565b60405180910390fd5b80600960003373ffffffffffffffffffffffffffffffffffffffff1673ffffffffffffffffffffffffffffffffffffffff16815260200190815260200160002060006101000a81548160ff0219169083151502179055507ffd243f3bf97670eb9ce8eb6e797a003e634ec72e138e97dfe64eea5fcd3c9bfd33826040516109a6929190612fba565b60405180910390a1505b600960003373ffffffffffffffffffffffffffffffffffffffff1673ffffffffffffffffffffffffffffffffffffffff16815260200190815260200160002060009054906101000a900460ff169050949350505050565b6000600254905090565b600080610a1c6115ac565b9050610a298582856115c6565b610a3485858561165a565b60019150509392505050565b7f000000000000000000000000000000000000000000000000000000000000000073ffffffffffffffffffffffffffffffffffffffff163373ffffffffffffffffffffffffffffffffffffffff1614610ace576040517f08c379a0000000000000000000000000000000000000000000000000000000008152600401610ac59061302f565b60405180910390fd5b610ad8828261174e565b7fb46d9f90634cdd92a25f86760ced4cb55b4f175b30907a8bb850e778ff49545b8282604051610b0992919061304f565b60405180910390a15050565b600a60009054906101000a900473ffffffffffffffffffffffffffffffffffffffff1681565b60006012905090565b600b8181548110610b5457600080fd5b906000526020600020016000915090508054610b6f90612d40565b80601f0160208091040260200160405190810160405280929190818152602001828054610b9b90612d40565b8015610be85780601f10610bbd57610100808354040283529160200191610be8565b820191906000526020600020905b815481529060010190602001808311610bcb57829003601f168201915b505050505081565b6000610bfa6117d0565b905090565b7f000000000000000000000000000000000000000000000000000000000000000081565b7f000000000000000000000000000000000000000000000000000000000000000073ffffffffffffffffffffffffffffffffffffffff163373ffffffffffffffffffffffffffffffffffffffff1603610cb1576040517f08c379a0000000000000000000000000000000000000000000000000000000008152600401610ca890612dbd565b60405180910390fd5b6008805490508310610cc257600080fd5b600060088481548110610cd857610cd7613078565b5b906000526020600020906005020160040160003373ffffffffffffffffffffffffffffffffffffffff1673ffffffffffffffffffffffffffffffffffffffff1681526020019081526020016000205490506000600282610d389190613209565b60028584610d469190613254565b610d509190613209565b610d5a9190613288565b9050610d663382611887565b8215610dad578360088681548110610d8157610d80613078565b5b90600052602060002090600502016002016000828254610da19190613254565b92505081905550610dea565b8360088681548110610dc257610dc1613078565b5b90600052602060002090600502016003016000828254610de29190613254565b925050819055505b8360088681548110610dff57610dfe613078565b5b906000526020600020906005020160040160003373ffffffffffffffffffffffffffffffffffffffff1673ffffffffffffffffffffffffffffffffffffffff1681526020019081526020016000206000828254610e5c9190613254565b92505081905550847ff2bf239e8d622c91f5c535718316c5e91ee5f05fa0363d3fb4178b62e14deeb58585604051610e959291906132bc565b60405180910390a25050505050565b60008060008373ffffffffffffffffffffffffffffffffffffffff1673ffffffffffffffffffffffffffffffffffffffff168152602001908152602001600020549050919050565b6000610ef782611909565b9050919050565b600060608060008060006060610f12611952565b610f1a61198d565b46306000801b600067ffffffffffffffff811115610f3b57610f3a6129eb565b5b604051908082528060200260200182016040528015610f695781602001602082028036833780820191505090505b507f0f00000000000000000000000000000000000000000000000000000000000000959493929190965096509650965096509650965090919293949596565b606060048054610fb790612d40565b80601f0160208091040260200160405190810160405280929190818152602001828054610fe390612d40565b80156110305780601f1061100557610100808354040283529160200191611030565b820191906000526020600020905b81548152906001019060200180831161101357829003601f168201915b5050505050905090565b6000600880549050905090565b6000806110526115ac565b905061105f81858561165a565b600191505092915050565b7f000000000000000000000000000000000000000000000000000000000000000081565b7f000000000000000000000000000000000000000000000000000000000000000073ffffffffffffffffffffffffffffffffffffffff163373ffffffffffffffffffffffffffffffffffffffff160361111c576040517f08c379a000000000000000000000000000000000000000000000000000000000815260040161111390612dbd565b60405180910390fd5b600960003373ffffffffffffffffffffffffffffffffffffffff1673ffffffffffffffffffffffffffffffffffffffff16815260200190815260200160002060009054906101000a900460ff166111a8576040517f08c379a000000000000000000000000000000000000000000000000000000000815260040161119f90613331565b60405180910390fd5b60008151116111ec576040517f08c379a00000000000000000000000000000000000000000000000000000000081526004016111e39061339d565b60405180910390fd5b600b81908060018154018082558091505060019003906000526020600020016000909190919091509081611220919061355f565b507f6b885df9b533bdd99e80d10590c5f565365efd00f35de1d47443f7e7a60d49b0816040516112509190612471565b60405180910390a150565b7f000000000000000000000000000000000000000000000000000000000000000073ffffffffffffffffffffffffffffffffffffffff163373ffffffffffffffffffffffffffffffffffffffff16036112e9576040517f08c379a00000000000000000000000000000000000000000000000000000000081526004016112e090612dbd565b60405180910390fd5b611316337f000000000000000000000000000000000000000000000000000000000000000060ff16611887565b6000600860018160018154018082558091505003906000526020600020906005020190508281600001908161134b919061355f565b508181600101908161135d919061355f565b5060016008805490506113709190613288565b7ffd60152207eb3f89529675ae41bd322b2c159744765d9823fd0959fc02610cb23385856040516113a393929190613631565b60405180910390a2505050565b60096020528060005260406000206000915054906101000a900460ff1681565b8342111561141557836040517f6279130200000000000000000000000000000000000000000000000000000000815260040161140c919061263b565b60405180910390fd5b60007f6e71edae12b1b97f4d1f60370fef10105fa2faae0126114a169c64845d6126c98888886114448c6119c8565b8960405160200161145a96959493929190613676565b604051602081830303815290604052805190602001209050600061147d82611a1f565b9050600061148d82878787611a39565b90508973ffffffffffffffffffffffffffffffffffffffff168173ffffffffffffffffffffffffffffffffffffffff161461150157808a6040517f4b800e460000000000000000000000000000000000000000000000000000000081526004016114f89291906136d7565b60405180910390fd5b61150c8a8a8a6115b4565b50505050505050505050565b6000600160008473ffffffffffffffffffffffffffffffffffffffff1673ffffffffffffffffffffffffffffffffffffffff16815260200190815260200160002060008373ffffffffffffffffffffffffffffffffffffffff1673ffffffffffffffffffffffffffffffffffffffff16815260200190815260200160002054905092915050565b6000600b80549050905090565b600033905090565b6115c18383836001611a69565b505050565b60006115d28484611518565b90507fffffffffffffffffffffffffffffffffffffffffffffffffffffffffffffffff81146116545781811015611644578281836040517ffb8f41b200000000000000000000000000000000000000000000000000000000815260040161163b93929190613700565b60405180910390fd5b61165384848484036000611a69565b5b50505050565b600073ffffffffffffffffffffffffffffffffffffffff168373ffffffffffffffffffffffffffffffffffffffff16036116cc5760006040517f96c6fd1e0000000000000000000000000000000000000000000000000000000081526004016116c3919061279d565b60405180910390fd5b600073ffffffffffffffffffffffffffffffffffffffff168273ffffffffffffffffffffffffffffffffffffffff160361173e5760006040517fec442f05000000000000000000000000000000000000000000000000000000008152600401611735919061279d565b60405180910390fd5b611749838383611c40565b505050565b600073ffffffffffffffffffffffffffffffffffffffff168273ffffffffffffffffffffffffffffffffffffffff16036117c05760006040517fec442f050000000000000000000000000000000000000000000000000000000081526004016117b7919061279d565b60405180910390fd5b6117cc60008383611c40565b5050565b60007f000000000000000000000000000000000000000000000000000000000000000073ffffffffffffffffffffffffffffffffffffffff163073ffffffffffffffffffffffffffffffffffffffff1614801561184c57507f000000000000000000000000000000000000000000000000000000000000000046145b15611879577f00000000000000000000000000000000000000000000000000000000000000009050611884565b611881611e65565b90505b90565b600073ffffffffffffffffffffffffffffffffffffffff168273ffffffffffffffffffffffffffffffffffffffff16036118f95760006040517f96c6fd1e0000000000000000000000000000000000000000000000000000000081526004016118f0919061279d565b60405180910390fd5b61190582600083611c40565b5050565b6000600760008373ffffffffffffffffffffffffffffffffffffffff1673ffffffffffffffffffffffffffffffffffffffff168152602001908152602001600020549050919050565b606061198860057f0000000000000000000000000000000000000000000000000000000000000000611efb90919063ffffffff16565b905090565b60606119c360067f0000000000000000000000000000000000000000000000000000000000000000611efb90919063ffffffff16565b905090565b6000600760008373ffffffffffffffffffffffffffffffffffffffff1673ffffffffffffffffffffffffffffffffffffffff1681526020019081526020016000206000815480929190600101919050559050919050565b6000611a32611a2c6117d0565b83611fab565b9050919050565b600080600080611a4b88888888611fec565b925092509250611a5b82826120e0565b829350505050949350505050565b600073ffffffffffffffffffffffffffffffffffffffff168473ffffffffffffffffffffffffffffffffffffffff1603611adb5760006040517fe602df05000000000000000000000000000000000000000000000000000000008152600401611ad2919061279d565b60405180910390fd5b600073ffffffffffffffffffffffffffffffffffffffff168373ffffffffffffffffffffffffffffffffffffffff1603611b4d5760006040517f94280d62000000000000000000000000000000000000000000000000000000008152600401611b44919061279d565b60405180910390fd5b81600160008673ffffffffffffffffffffffffffffffffffffffff1673ffffffffffffffffffffffffffffffffffffffff16815260200190815260200160002060008573ffffffffffffffffffffffffffffffffffffffff1673ffffffffffffffffffffffffffffffffffffffff168152602001908152602001600020819055508015611c3a578273ffffffffffffffffffffffffffffffffffffffff168473ffffffffffffffffffffffffffffffffffffffff167f8c5be1e5ebec7d5bd14f71427d1e84f3dd0314c0f7b2291e5b200ac8c7c3b92584604051611c31919061263b565b60405180910390a35b50505050565b600073ffffffffffffffffffffffffffffffffffffffff168373ffffffffffffffffffffffffffffffffffffffff1603611c92578060026000828254611c869190613254565b92505081905550611d65565b60008060008573ffffffffffffffffffffffffffffffffffffffff1673ffffffffffffffffffffffffffffffffffffffff16815260200190815260200160002054905081811015611d1e578381836040517fe450d38c000000000000000000000000000000000000000000000000000000008152600401611d1593929190613700565b60405180910390fd5b8181036000808673ffffffffffffffffffffffffffffffffffffffff1673ffffffffffffffffffffffffffffffffffffffff16815260200190815260200160002081905550505b600073ffffffffffffffffffffffffffffffffffffffff168273ffffffffffffffffffffffffffffffffffffffff1603611dae5780600260008282540392505081905550611dfb565b806000808473ffffffffffffffffffffffffffffffffffffffff1673ffffffffffffffffffffffffffffffffffffffff168152602001908152602001600020600082825401925050819055505b8173ffffffffffffffffffffffffffffffffffffffff168373ffffffffffffffffffffffffffffffffffffffff167fddf252ad1be2c89b69c2b068fc378daa952ba7f163c4a11628f55a4df523b3ef83604051611e58919061263b565b60405180910390a3505050565b60007f8b73c3c69bb8fe3d512ecc4cf759cc79239f7b179b0ffacaa9a75d522b39400f7f00000000000000000000000000000000000000000000000000000000000000007f00000000000000000000000000000000000000000000000000000000000000004630604051602001611ee0959493929190613737565b60405160208183030381529060405280519060200120905090565b606060ff60001b8314611f1857611f1183612244565b9050611fa5565b818054611f2490612d40565b80601f0160208091040260200160405190810160405280929190818152602001828054611f5090612d40565b8015611f9d5780601f10611f7257610100808354040283529160200191611f9d565b820191906000526020600020905b815481529060010190602001808311611f8057829003601f168201915b505050505090505b92915050565b60006040517f190100000000000000000000000000000000000000000000000000000000000081528360028201528260228201526042812091505092915050565b60008060007f7fffffffffffffffffffffffffffffff5d576e7357a4501ddfe92f46681b20a08460001c111561202c5760006003859250925092506120d6565b600060018888888860405160008152602001604052604051612051949392919061378a565b6020604051602081039080840390855afa158015612073573d6000803e3d6000fd5b505050602060405103519050600073ffffffffffffffffffffffffffffffffffffffff168173ffffffffffffffffffffffffffffffffffffffff16036120c757600060016000801b935093509350506120d6565b8060008060001b935093509350505b9450945094915050565b600060038111156120f4576120f36137cf565b5b826003811115612107576121066137cf565b5b03156122405760016003811115612121576121206137cf565b5b826003811115612134576121336137cf565b5b0361216b576040517ff645eedf00000000000000000000000000000000000000000000000000000000815260040160405180910390fd5b6002600381111561217f5761217e6137cf565b5b826003811115612192576121916137cf565b5b036121d7578060001c6040517ffce698f70000000000000000000000000000000000000000000000000000000081526004016121ce919061263b565b60405180910390fd5b6003808111156121ea576121e96137cf565b5b8260038111156121fd576121fc6137cf565b5b0361223f57806040517fd78bce0c0000000000000000000000000000000000000000000000000000000081526004016122369190612773565b60405180910390fd5b5b5050565b60606000612251836122b8565b90506000602067ffffffffffffffff8111156122705761226f6129eb565b5b6040519080825280601f01601f1916602001820160405280156122a25781602001600182028036833780820191505090505b5090508181528360208201528092505050919050565b60008060ff8360001c169050601f8111156122ff576040517fb3512b0c00000000000000000000000000000000000000000000000000000000815260040160405180910390fd5b80915050919050565b6000604051905090565b600080fd5b600080fd5b6000819050919050565b61232f8161231c565b811461233a57600080fd5b50565b60008135905061234c81612326565b92915050565b60006020828403121561236857612367612312565b5b60006123768482850161233d565b91505092915050565b600081519050919050565b600082825260208201905092915050565b60005b838110156123b957808201518184015260208101905061239e565b60008484015250505050565b6000601f19601f8301169050919050565b60006123e18261237f565b6123eb818561238a565b93506123fb81856020860161239b565b612404816123c5565b840191505092915050565b6124188161231c565b82525050565b6000608082019050818103600083015261243881876123d6565b9050818103602083015261244c81866123d6565b905061245b604083018561240f565b612468606083018461240f565b95945050505050565b6000602082019050818103600083015261248b81846123d6565b905092915050565b600073ffffffffffffffffffffffffffffffffffffffff82169050919050565b60006124be82612493565b9050919050565b6124ce816124b3565b81146124d957600080fd5b50565b6000813590506124eb816124c5565b92915050565b6000806040838503121561250857612507612312565b5b6000612516858286016124dc565b92505060206125278582860161233d565b9150509250929050565b60008115159050919050565b61254681612531565b82525050565b6000602082019050612561600083018461253d565b92915050565b600080fd5b60008190508260206002028201111561258857612587612567565b5b92915050565b6000819050826040600202820111156125aa576125a9612567565b5b92915050565b6000819050826020600102820111156125cc576125cb612567565b5b92915050565b60008060008061012085870312156125ed576125ec612312565b5b60006125fb8782880161256c565b945050604061260c8782880161258e565b93505060c061261d8782880161256c565b92505061010061262f878288016125b0565b91505092959194509250565b6000602082019050612650600083018461240f565b92915050565b60008060006060848603121561266f5761266e612312565b5b600061267d868287016124dc565b935050602061268e868287016124dc565b925050604061269f8682870161233d565b9150509250925092565b6000819050919050565b60006126ce6126c96126c484612493565b6126a9565b612493565b9050919050565b60006126e0826126b3565b9050919050565b60006126f2826126d5565b9050919050565b612702816126e7565b82525050565b600060208201905061271d60008301846126f9565b92915050565b600060ff82169050919050565b61273981612723565b82525050565b60006020820190506127546000830184612730565b92915050565b6000819050919050565b61276d8161275a565b82525050565b60006020820190506127886000830184612764565b92915050565b612797816124b3565b82525050565b60006020820190506127b2600083018461278e565b92915050565b6127c181612531565b81146127cc57600080fd5b50565b6000813590506127de816127b8565b92915050565b6000806000606084860312156127fd576127fc612312565b5b600061280b8682870161233d565b935050602061281c8682870161233d565b925050604061282d868287016127cf565b9150509250925092565b60006020828403121561284d5761284c612312565b5b600061285b848285016124dc565b91505092915050565b60007fff0000000000000000000000000000000000000000000000000000000000000082169050919050565b61289981612864565b82525050565b600081519050919050565b600082825260208201905092915050565b6000819050602082019050919050565b6128d48161231c565b82525050565b60006128e683836128cb565b60208301905092915050565b6000602082019050919050565b600061290a8261289f565b61291481856128aa565b935061291f836128bb565b8060005b8381101561295057815161293788826128da565b9750612942836128f2565b925050600181019050612923565b5085935050505092915050565b600060e082019050612972600083018a612890565b818103602083015261298481896123d6565b9050818103604083015261299881886123d6565b90506129a7606083018761240f565b6129b4608083018661278e565b6129c160a0830185612764565b81810360c08301526129d381846128ff565b905098975050505050505050565b600080fd5b600080fd5b7f4e487b7100000000000000000000000000000000000000000000000000000000600052604160045260246000fd5b612a23826123c5565b810181811067ffffffffffffffff82111715612a4257612a416129eb565b5b80604052505050565b6000612a55612308565b9050612a618282612a1a565b919050565b600067ffffffffffffffff821115612a8157612a806129eb565b5b612a8a826123c5565b9050602081019050919050565b82818337600083830152505050565b6000612ab9612ab484612a66565b612a4b565b905082815260208101848484011115612ad557612ad46129e6565b5b612ae0848285612a97565b509392505050565b600082601f830112612afd57612afc6129e1565b5b8135612b0d848260208601612aa6565b91505092915050565b600060208284031215612b2c57612b2b612312565b5b600082013567ffffffffffffffff811115612b4a57612b49612317565b5b612b5684828501612ae8565b91505092915050565b60008060408385031215612b7657612b75612312565b5b600083013567ffffffffffffffff811115612b9457612b93612317565b5b612ba085828601612ae8565b925050602083013567ffffffffffffffff811115612bc157612bc0612317565b5b612bcd85828601612ae8565b9150509250929050565b612be081612723565b8114612beb57600080fd5b50565b600081359050612bfd81612bd7565b92915050565b612c0c8161275a565b8114612c1757600080fd5b50565b600081359050612c2981612c03565b92915050565b600080600080600080600060e0888a031215612c4e57612c4d612312565b5b6000612c5c8a828b016124dc565b9750506020612c6d8a828b016124dc565b9650506040612c7e8a828b0161233d565b9550506060612c8f8a828b0161233d565b9450506080612ca08a828b01612bee565b93505060a0612cb18a828b01612c1a565b92505060c0612cc28a828b01612c1a565b91505092959891949750929550565b60008060408385031215612ce857612ce7612312565b5b6000612cf6858286016124dc565b9250506020612d07858286016124dc565b9150509250929050565b7f4e487b7100000000000000000000000000000000000000000000000000000000600052602260045260246000fd5b60006002820490506001821680612d5857607f821691505b602082108103612d6b57612d6a612d11565b5b50919050565b7f63616e6e6f742062652070726f666573736f7200000000000000000000000000600082015250565b6000612da760138361238a565b9150612db282612d71565b602082019050919050565b60006020820190508181036000830152612dd681612d9a565b9050919050565b82818337505050565b612df260408383612ddd565b5050565b600060029050919050565b600081905092915050565b6000819050919050565b612e2260408383612ddd565b5050565b6000612e328383612e16565b60408301905092915050565b600082905092915050565b6000604082019050919050565b612e5f81612df6565b612e698184612e01565b9250612e7482612e0c565b8060005b83811015612ead57612e8a8284612e3e565b612e948782612e26565b9650612e9f83612e49565b925050600181019050612e78565b505050505050565b612ec160208383612ddd565b5050565b600061012082019050612edb6000830187612de6565b612ee86040830186612e56565b612ef560c0830185612de6565b612f03610100830184612eb5565b95945050505050565b600081519050612f1b816127b8565b92915050565b600060208284031215612f3757612f36612312565b5b6000612f4584828501612f0c565b91505092915050565b7f696e76616c69642070726f6f6600000000000000000000000000000000000000600082015250565b6000612f84600d8361238a565b9150612f8f82612f4e565b602082019050919050565b60006020820190508181036000830152612fb381612f77565b9050919050565b6000604082019050612fcf600083018561278e565b612fdc602083018461253d565b9392505050565b7f6d7573742062652070726f666573736f72000000000000000000000000000000600082015250565b600061301960118361238a565b915061302482612fe3565b602082019050919050565b600060208201905081810360008301526130488161300c565b9050919050565b6000604082019050613064600083018561278e565b613071602083018461240f565b9392505050565b7f4e487b7100000000000000000000000000000000000000000000000000000000600052603260045260246000fd5b7f4e487b7100000000000000000000000000000000000000000000000000000000600052601160045260246000fd5b60008160011c9050919050565b6000808291508390505b600185111561312d57808604811115613109576131086130a7565b5b60018516156131185780820291505b8081029050613126856130d6565b94506130ed565b94509492505050565b6000826131465760019050613202565b816131545760009050613202565b816001811461316a5760028114613174576131a3565b6001915050613202565b60ff841115613186576131856130a7565b5b8360020a91508482111561319d5761319c6130a7565b5b50613202565b5060208310610133831016604e8410600b84101617156131d85782820a9050838111156131d3576131d26130a7565b5b613202565b6131e584848460016130e3565b925090508184048111156131fc576131fb6130a7565b5b81810290505b9392505050565b60006132148261231c565b915061321f83612723565b925061324c7fffffffffffffffffffffffffffffffffffffffffffffffffffffffffffffffff8484613136565b905092915050565b600061325f8261231c565b915061326a8361231c565b9250828201905080821115613282576132816130a7565b5b92915050565b60006132938261231c565b915061329e8361231c565b92508282039050818111156132b6576132b56130a7565b5b92915050565b60006040820190506132d1600083018561240f565b6132de602083018461253d565b9392505050565b7f73747564656e7420737461747573206e6f742076657269666965640000000000600082015250565b600061331b601b8361238a565b9150613326826132e5565b602082019050919050565b6000602082019050818103600083015261334a8161330e565b9050919050565b7f656d70747920666565646261636b20737472696e67207375626d697474656400600082015250565b6000613387601f8361238a565b915061339282613351565b602082019050919050565b600060208201905081810360008301526133b68161337a565b9050919050565b60008190508160005260206000209050919050565b60006020601f8301049050919050565b600082821b905092915050565b60006008830261341f7fffffffffffffffffffffffffffffffffffffffffffffffffffffffffffffffff826133e2565b61342986836133e2565b95508019841693508086168417925050509392505050565b600061345c6134576134528461231c565b6126a9565b61231c565b9050919050565b6000819050919050565b61347683613441565b61348a61348282613463565b8484546133ef565b825550505050565b600090565b61349f613492565b6134aa81848461346d565b505050565b5b818110156134ce576134c3600082613497565b6001810190506134b0565b5050565b601f821115613513576134e4816133bd565b6134ed846133d2565b810160208510156134fc578190505b613510613508856133d2565b8301826134af565b50505b505050565b600082821c905092915050565b600061353660001984600802613518565b1980831691505092915050565b600061354f8383613525565b9150826002028217905092915050565b6135688261237f565b67ffffffffffffffff811115613581576135806129eb565b5b61358b8254612d40565b6135968282856134d2565b600060209050601f8311600181146135c957600084156135b7578287015190505b6135c18582613543565b865550613629565b601f1984166135d7866133bd565b60005b828110156135ff578489015182556001820191506020850194506020810190506135da565b8683101561361c5784890151613618601f891682613525565b8355505b6001600288020188555050505b505050505050565b6000606082019050613646600083018661278e565b818103602083015261365881856123d6565b9050818103604083015261366c81846123d6565b9050949350505050565b600060c08201905061368b6000830189612764565b613698602083018861278e565b6136a5604083018761278e565b6136b2606083018661240f565b6136bf608083018561240f565b6136cc60a083018461240f565b979650505050505050565b60006040820190506136ec600083018561278e565b6136f9602083018461278e565b9392505050565b6000606082019050613715600083018661278e565b613722602083018561240f565b61372f604083018461240f565b949350505050565b600060a08201905061374c6000830188612764565b6137596020830187612764565b6137666040830186612764565b613773606083018561240f565b613780608083018461278e565b9695505050505050565b600060808201905061379f6000830187612764565b6137ac6020830186612730565b6137b96040830185612764565b6137c66060830184612764565b95945050505050565b7f4e487b7100000000000000000000000000000000000000000000000000000000600052602160045260246000fdfea264697066735822122084a33a334dfa9048cc067253a96f4a544dfc0fc62d4d3ceb8cfac61a41b1b2bd64736f6c63430008180033608060405234801561001057600080fd5b5061060e806100206000396000f3fe608060405234801561001057600080fd5b506004361061002b5760003560e01c806343753b4d14610030575b600080fd5b61004a60048036038101906100459190610539565b610060565b60405161005791906105bd565b60405180910390f35b600061048d565b7f30644e72e131a029b85045b68181585d2833e84879b9709143e1f593f00000018110610098576000805260206000f35b50565b600060405183815284602082015285604082015260408160608360076107d05a03fa9150816100ce576000805260206000f35b825160408201526020830151606082015260408360808360066107d05a03fa9150816100fe576000805260206000f35b505050505050565b600060808601600087017f21dfe72b0234bb5da96e86b058ac0cfb10e5493a13c3d04fb1ee68dd3f8b347b81527f29c86eaef3307a4bf118aa7b928a9e9906995318b1dfe3a22a661b8c36f055ee60208201526101a960008801357f1988c7d79cbc88a0da5d576e8b8d6ec9c4a57740c9310e50cf569349a93aad4f7f1b8f469b944336608681fe53c5163189934800481aad5e4bd4a703b03f2029858461009b565b833582527f30644e72e131a029b85045b68181585d97816a916871ca8d3c208c16d87cfd4760208501357f30644e72e131a029b85045b68181585d97816a916871ca8d3c208c16d87cfd4703066020830152843560408301526020850135606083015260408501356080830152606085013560a08301527f245229d9b076b3c0e8a4d70bde8c1cccffa08a9fae7557b165b3b0dbd653e2c760c08301527f253ec85988dbb84e46e94b5efa3373b47a000b4ac6c86b2d4b798d274a18230260e08301527f07090a82e8fabbd39299be24705b92cf208ee8b3487f6f2b39ff27978a29a1db6101008301527f2424bcc1f60a5472685fd50705b2809626e170120acaf441e133a2bd5e61d2446101208301527f0ae1135cffdaf227c5dc266740607aa930bc3bd92ddc2b135086d9da2dfd3e2a6101408301527f2b86859fd3d55c9d150fb3f0aeba798826493dd73d357ab0f9fdaced9fc81829610160830152600088015161018083015260206000018801516101a08301527f198e9393920d483a7260bfb731fb5d25f1aa493335a9e71297e485b7aef312c26101c08301527f1800deef121f1e76426a00665e5c4479674322d4f75edadd46debd5cd992f6ed6101e08301527f090689d0585ff075ec9e99ad690c3395bc4b313370b38ef355acdadcd122975b6102008301527f12c85ea5db8c6deb4aab71808dcb408fe3d1e7690c43d37b4ce6cc0166fa7daa610220830152853561024083015260208601356102608301527f19f9a776d0735d8e3b0105c8fe128e643275defeeaa77f16b1a5a2f98549d4a06102808301527f2333051be9a22dbd3c67de76c9ca5b4e233c89ea98c1fd14910d899cddc4bb216102a08301527f23126fd6ce19602462b2e313d08b5ffd34d80e3a441613236a1e3006545849236102c08301527f292891e83e13c5f8a807fc970c15721c41ff575a39137b3c28c31d230d35123b6102e08301526020826103008460086107d05a03fa82518116935050505095945050505050565b60405161038081016040526104a56000840135610067565b6104b26020840135610067565b6104bf818486888a610106565b8060005260206000f35b600080fd5b600080fd5b6000819050826020600202820111156104ef576104ee6104ce565b5b92915050565b600081905082604060020282011115610511576105106104ce565b5b92915050565b600081905082602060010282011115610533576105326104ce565b5b92915050565b6000806000806101208587031215610554576105536104c9565b5b6000610562878288016104d3565b9450506040610573878288016104f5565b93505060c0610584878288016104d3565b92505061010061059687828801610517565b91505092959194509250565b60008115159050919050565b6105b7816105a2565b82525050565b60006020820190506105d260008301846105ae565b9291505056fea2646970667358221220dd6566fdaeb24b372bd59fef4ee2a7029792b3b35ea6c26200f159ddb99bc64664736f6c63430008180033",
  "linkReferences": {},
  "deployedLinkReferences": {}
}